:020000040000FA
:02000000027A82
:02000100027B80
:02000200027C7E
:02000300027D7C
:02000400027E7A
:02000500027F78
:02000600028076
:02000700028174
:02000800028272
:02000900028370
:02000A0002846E
:02000B0002856C
:02000C0002866A
:02000D00028768
:02000E00028866
:02000F00028964
:02001000028A62
:02001100028B60
:02001200028C5E
:02001300028D5C
:02001400028E5A
:02001500028F58
:02001600029056
:02001700029154
:02001800029252
:02001900029350
:02001A0002944E
:02001B0002954C
:02001C0002964A
:02001D00029748
:02001E00029846
:02001F00029944
:02002000029A42
:02002100029B40
:02002200029C3E
:02002300029D3C
:02002400029E3A
:02002500029F38
:0200260002A036
:0200270002A134
:0200280002A232
:0200290002A330
:02002A0002A42E
:02002B0002A52C
:02002C0002A62A
:02002D0002A728
:02002E0002A826
:02002F0002A924
:0200300002AA22
:0200310002AB20
:0200320002AC1E
:0200330002AD1C
:0200340002AE1A
:0200350002AF18
:0200360002B016
:0200370002B114
:0200380002B212
:0200390002B310
:02003A0002B40E
:02003B0002B50C
:02003C0002B60A
:02003D0002B708
:02003E0002B806
:02003F0002B904
:0200400002BA02
:0200410002BB00
:0200420002BCFE
:0200430002BDFC
:0200440002BEFA
:0200450002BFF8
:0200460002C0F6
:0200470002C1F4
:0200480002C2F2
:0200490002C3F0
:02004A0002C4EE
:02004B0002C5EC
:02004C0002C6EA
:02004D0002C7E8
:02004E0002C8E6
:02004F0002C9E4
:0200500002CAE2
:0200510002CBE0
:0200520002CCDE
:0200530002CDDC
:0200540002CEDA
:0200550002CFD8
:0200560002D0D6
:0200570002D1D4
:0200580002D2D2
:0200590002D3D0
:02005A0002D4CE
:02005B0002D5CC
:02005C0002D6CA
:02005D0002D7C8
:02005E0002D8C6
:02005F0002D9C4
:0200600002DAC2
:0200610002DBC0
:0200620002DCBE
:0200630002DDBC
:0200640002DEBA
:0200650002DFB8
:0200660002E0B6
:0200670002E1B4
:0200680002E2B2
:0200690002E3B0
:02006A0002E4AE
:02006B0002E5AC
:02006C0002E6AA
:02006D0002E7A8
:02006E0002E8A6
:02006F0002E9A4
:0200700002EAA2
:0200710002EBA0
:0200720002EC9E
:0200730002ED9C
:0200740002EE9A
:0200750002EF98
:0200760002F096
:0200770002F194
:0200780002F292
:0200790002F390
:02007A0002F48E
:02007B0002F58C
:02007C0002F68A
:02007D0002F788
:02007E0002F886
:02007F0002F984
:0200800002FA82
:0200810002FB80
:0200820002FC7E
:0200830002FD7C
:0200840002FE7A
:0200850002FF78
:02008600030075
:02008700030173
:02008800030271
:0200890003036F
:02008A0003046D
:02008B0003056B
:02008C00030669
:02008D00030767
:02008E00030865
:02008F00030963
:02009000030A61
:02009100030B5F
:02009200030C5D
:02009300030D5B
:02009400030E59
:02009500030F57
:02009600031055
:02009700031153
:02009800031251
:0200990003134F
:02009A0003144D
:02009B0003154B
:02009C00031649
:02009D00031747
:02009E00031845
:02009F00031943
:0200A000031A41
:0200A100031B3F
:0200A200031C3D
:0200A300031D3B
:0200A400031E39
:0200A500031F37
:0200A600032035
:0200A700032133
:0200A800032231
:0200A90003232F
:0200AA0003242D
:0200AB0003252B
:0200AC00032629
:0200AD00032727
:0200AE00032825
:0200AF00032923
:0200B000032A21
:0200B100032B1F
:0200B200032C1D
:0200B300032D1B
:0200B400032E19
:0200B500032F17
:0200B600033015
:0200B700033113
:0200B800033211
:0200B90003330F
:0200BA0003340D
:0200BB0003350B
:0200BC00033609
:0200BD00033707
:0200BE00033805
:0200BF00033903
:0200C000033A01
:0200C100033BFF
:0200C200033CFD
:0200C300033DFB
:0200C400033EF9
:0200C500033FF7
:0200C6000340F5
:0200C7000341F3
:0200C8000342F1
:0200C9000343EF
:0200CA000344ED
:0200CB000345EB
:0200CC000346E9
:0200CD000347E7
:0200CE000348E5
:0200CF000349E3
:0200D000034AE1
:0200D100034BDF
:0200D200034CDD
:0200D300034DDB
:0200D400034ED9
:0200D500034FD7
:0200D6000350D5
:0200D7000351D3
:0200D8000352D1
:0200D9000353CF
:0200DA000354CD
:0200DB000355CB
:0200DC000356C9
:0200DD000357C7
:0200DE000358C5
:0200DF000359C3
:0200E000035AC1
:0200E100035BBF
:0200E200035CBD
:0200E300035DBB
:0200E400035EB9
:0200E500035FB7
:0200E6000360B5
:0200E7000361B3
:0200E8000362B1
:0200E9000363AF
:0200EA000364AD
:0200EB000365AB
:0200EC000366A9
:0200ED000367A7
:0200EE000368A5
:0200EF000369A3
:0200F000036AA1
:0200F100036B9F
:0200F200036C9D
:0200F300036D9B
:0200F400036E99
:0200F500036F97
:0200F600037095
:0200F700037193
:0200F800037291
:0200F90003738F
:0200FA0003748D
:0200FB0003758B
:0200FC00037689
:0200FD00037787
:0200FE00037885
:0200FF00037983
:02010000037A80
:02010100037B7E
:02010200037C7C
:02010300037D7A
:02010400037E78
:02010500037F76
:02010600038074
:02010700038172
:02010800038270
:0201090003836E
:02010A0003846C
:02010B0003856A
:02010C00038668
:02010D00038766
:02010E00038864
:02010F00038962
:02011000038A60
:02011100038B5E
:02011200038C5C
:02011300038D5A
:02011400038E58
:02011500038F56
:02011600039054
:02011700039152
:02011800039250
:0201190003934E
:02011A0003944C
:02011B0003954A
:02011C00039648
:02011D00039746
:02011E00039844
:02011F00039942
:02012000039A40
:02012100039B3E
:02012200039C3C
:02012300039D3A
:02012400039E38
:02012500039F36
:0201260003A034
:0201270003A132
:0201280003A230
:0201290003A32E
:02012A0003A42C
:02012B0003A52A
:02012C0003A628
:02012D0003A726
:02012E0003A824
:02012F0003A922
:0201300003AA20
:0201310003AB1E
:0201320003AC1C
:0201330003AD1A
:0201340003AE18
:0201350003AF16
:0201360003B014
:0201370003B112
:0201380003B210
:0201390003B30E
:02013A0003B40C
:02013B0003B50A
:02013C0003B608
:02013D0003B706
:02013E0003B804
:02013F0003B902
:0201400003BA00
:0201410003BBFE
:0201420003BCFC
:0201430003BDFA
:0201440003BEF8
:0201450003BFF6
:0201460003C0F4
:0201470003C1F2
:0201480003C2F0
:0201490003C3EE
:02014A0003C4EC
:02014B0003C5EA
:02014C0003C6E8
:02014D0003C7E6
:02014E0003C8E4
:02014F0003C9E2
:0201500003CAE0
:0201510003CBDE
:0201520003CCDC
:0201530003CDDA
:0201540003CED8
:0201550003CFD6
:0201560003D0D4
:0201570003D1D2
:0201580003D2D0
:0201590003D3CE
:02015A0003D4CC
:02015B0003D5CA
:02015C0003D6C8
:02015D0003D7C6
:02015E0003D8C4
:02015F0003D9C2
:0201600003DAC0
:0201610003DBBE
:0201620003DCBC
:0201630003DDBA
:0201640003DEB8
:0201650003DFB6
:0201660003E0B4
:0201670003E1B2
:0201680003E2B0
:0201690003E3AE
:02016A0003E4AC
:02016B0003E5AA
:02016C0003E6A8
:02016D0003E7A6
:02016E0003E8A4
:02016F0003E9A2
:0201700003EAA0
:0201710003EB9E
:0201720003EC9C
:0201730003ED9A
:0201740003EE98
:0201750003EF96
:0201760003F094
:0201770003F192
:0201780003F290
:0201790003F38E
:02017A0003F48C
:02017B0003F58A
:02017C0003F688
:02017D0003F786
:02017E0003F884
:02017F0003F982
:0201800003FA80
:0201810003FB7E
:0201820003FC7C
:0201830003FD7A
:0201840003FE78
:0201850003FF76
:02018600000077
:02018700000175
:02018800000273
:02018900000371
:02018A0000046F
:02018B0000056D
:02018C0000066B
:02018D00000769
:02018E00000867
:02018F00000965
:02019000000A63
:02019100000B61
:02019200000C5F
:02019300000D5D
:02019400000E5B
:02019500000F59
:02019600001057
:02019700001155
:02019800001253
:02019900001351
:02019A0000144F
:02019B0000154D
:02019C0000164B
:02019D00001749
:02019E00001847
:02019F00001945
:0201A000001A43
:0201A100001B41
:0201A200001C3F
:0201A300001D3D
:0201A400001E3B
:0201A500001F39
:0201A600002037
:0201A700002135
:0201A800002233
:0201A900002331
:0201AA0000242F
:0201AB0000252D
:0201AC0000262B
:0201AD00002729
:0201AE00002827
:0201AF00002925
:0201B000002A23
:0201B100002B21
:0201B200002C1F
:0201B300002D1D
:0201B400002E1B
:0201B500002F19
:0201B600003017
:0201B700003115
:0201B800003213
:0201B900003311
:0201BA0000340F
:0201BB0000350D
:0201BC0000360B
:0201BD00003709
:0201BE00003807
:0201BF00003905
:0201C000003A03
:0201C100003B01
:0201C200003CFF
:0201C300003DFD
:0201C400003EFB
:0201C500003FF9
:0201C6000040F7
:0201C7000041F5
:0201C8000042F3
:0201C9000043F1
:0201CA000044EF
:0201CB000045ED
:0201CC000046EB
:0201CD000047E9
:0201CE000048E7
:0201CF000049E5
:0201D000004AE3
:0201D100004BE1
:0201D200004CDF
:0201D300004DDD
:0201D400004EDB
:0201D500004FD9
:0201D6000050D7
:0201D7000051D5
:0201D8000052D3
:0201D9000053D1
:0201DA000054CF
:0201DB000055CD
:0201DC000056CB
:0201DD000057C9
:0201DE000058C7
:0201DF000059C5
:0201E000005AC3
:0201E100005BC1
:0201E200005CBF
:0201E300005DBD
:0201E400005EBB
:0201E500005FB9
:0201E6000060B7
:0201E7000061B5
:0201E8000062B3
:0201E9000063B1
:0201EA000064AF
:0201EB000065AD
:0201EC000066AB
:0201ED000067A9
:0201EE000068A7
:0201EF000069A5
:0201F000006AA3
:0201F100006BA1
:0201F200006C9F
:0201F300006D9D
:0201F400006E9B
:0201F500006F99
:0201F600007097
:0201F700007195
:0201F800007293
:0201F900007391
:0201FA0000748F
:0201FB0000758D
:0201FC0000768B
:0201FD00007789
:0201FE00007887
:0201FF00007985
:02020000007A82
:02020100007B80
:02020200007C7E
:02020300007D7C
:02020400007E7A
:02020500007F78
:02020600008076
:02020700008174
:02020800008272
:02020900008370
:02020A0000846E
:02020B0000856C
:02020C0000866A
:02020D00008768
:02020E00008866
:02020F00008964
:02021000008A62
:02021100008B60
:02021200008C5E
:02021300008D5C
:02021400008E5A
:02021500008F58
:02021600009056
:02021700009154
:02021800009252
:02021900009350
:02021A0000944E
:02021B0000954C
:02021C0000964A
:02021D00009748
:02021E00009846
:02021F00009944
:02022000009A42
:02022100009B40
:02022200009C3E
:02022300009D3C
:02022400009E3A
:02022500009F38
:0202260000A036
:0202270000A134
:0202280000A232
:0202290000A330
:02022A0000A42E
:02022B0000A52C
:02022C0000A62A
:02022D0000A728
:02022E0000A826
:02022F0000A924
:0202300000AA22
:0202310000AB20
:0202320000AC1E
:0202330000AD1C
:0202340000AE1A
:0202350000AF18
:0202360000B016
:0202370000B114
:0202380000B212
:0202390000B310
:02023A0000B40E
:02023B0000B50C
:02023C0000B60A
:02023D0000B708
:02023E0000B806
:02023F0000B904
:0202400000BA02
:0202410000BB00
:0202420000BCFE
:0202430000BDFC
:0202440000BEFA
:0202450000BFF8
:0202460000C0F6
:0202470000C1F4
:0202480000C2F2
:0202490000C3F0
:02024A0000C4EE
:02024B0000C5EC
:02024C0000C6EA
:02024D0000C7E8
:02024E0000C8E6
:02024F0000C9E4
:0202500000CAE2
:0202510000CBE0
:0202520000CCDE
:0202530000CDDC
:0202540000CEDA
:0202550000CFD8
:0202560000D0D6
:0202570000D1D4
:0202580000D2D2
:0202590000D3D0
:02025A0000D4CE
:02025B0000D5CC
:02025C0000D6CA
:02025D0000D7C8
:02025E0000D8C6
:02025F0000D9C4
:0202600000DAC2
:0202610000DBC0
:0202620000DCBE
:0202630000DDBC
:0202640000DEBA
:0202650000DFB8
:0202660000E0B6
:0202670000E1B4
:0202680000E2B2
:0202690000E3B0
:02026A0000E4AE
:02026B0000E5AC
:02026C0000E6AA
:02026D0000E7A8
:02026E0000E8A6
:02026F0000E9A4
:0202700000EAA2
:0202710000EBA0
:0202720000EC9E
:0202730000ED9C
:0202740000EE9A
:0202750000EF98
:0202760000F096
:0202770000F194
:0202780000F292
:0202790000F390
:00000001ff
