:0200000007fff8
:0200010007fff7
:0200020007fff6
:0200030007fff5
:0200040007fef5
:0200050007fef4
:0200060007fef3
:0200070007fdf3
:0200080007fdf2
:0200090007fcf2
:02000a0007fbf2
:02000b0007faf2
:02000c0007f9f2
:02000d0007f8f2
:02000e0007f7f2
:02000f0007f6f2
:0200100007f5f2
:0200110007f4f2
:0200120007f3f2
:0200130007f1f3
:0200140007f0f3
:0200150007eef4
:0200160007ecf5
:0200170007ebf5
:0200180007e9f6
:0200190007e7f7
:02001a0007e5f8
:02001b0007e3f9
:02001c0007e1fa
:02001d0007dffb
:02001e0007dcfd
:02001f0007dafe
:0200200007d8ff
:0200210007d501
:0200220007d302
:0200230007d004
:0200240007cd06
:0200250007ca08
:0200260007c809
:0200270007c50b
:0200280007c20d
:0200290007bf0f
:02002a0007bb12
:02002b0007b814
:02002c0007b516
:02002d0007b119
:02002e0007ae1b
:02002f0007aa1e
:0200300007a720
:0200310007a323
:02003200079f26
:02003300079c28
:0200340007982b
:0200350007942e
:02003600079031
:02003700078c34
:02003800078738
:0200390007833b
:02003a00077f3e
:02003b00077a42
:02003c00077645
:02003d00077149
:02003e00076d4c
:02003f00076850
:02004000076354
:02004100075e58
:0200420007595c
:02004300075460
:02004400074f64
:02004500074a68
:0200460007456c
:02004700074070
:02004800073a75
:02004900073579
:02004a0007307d
:02004b00072a82
:02004c00072487
:02004d00071f8b
:02004e00071990
:02004f00071395
:02005000070d9a
:0200510007079f
:020052000701a4
:0200530006fbaa
:0200540006f5af
:0200550006efb4
:0200560006e9b9
:0200570006e2bf
:0200580006dcc4
:0200590006d5ca
:02005a0006cfcf
:02005b0006c8d5
:02005c0006c1db
:02005d0006bbe0
:02005e0006b4e6
:02005f0006adec
:0200600006a6f2
:02006100069ff8
:020062000698fe
:02006300069104
:02006400068a0a
:02006500068211
:02006600067b17
:0200670006741d
:02006800066c24
:0200690006652a
:02006a00065d31
:02006b00065538
:02006c00064e3e
:02006d00064645
:02006e00063e4c
:02006f00063653
:02007000062e5a
:02007100062661
:02007200061e68
:0200730006166f
:02007400060e76
:0200750006067d
:0200760005fd86
:0200770005f58d
:0200780005ed94
:0200790005e49c
:02007a0005dca3
:02007b0005d3ab
:02007c0005cbb2
:02007d0005c2ba
:02007e0005b9c2
:02007f0005b0ca
:0200800005a7d2
:02008100059fd9
:020082000596e1
:02008300058de9
:020084000583f2
:02008500057afa
:02008600057102
:0200870005680a
:02008800055f12
:0200890005551b
:02008a00054c23
:02008b0005432b
:02008c00053934
:02008d0005303c
:02008e00052645
:02008f00051c4e
:02009000051356
:0200910005095f
:0200920004ff69
:0200930004f572
:0200940004eb7b
:0200950004e184
:0200960004d78d
:0200970004cd96
:0200980004c39f
:0200990004b9a8
:02009a0004afb1
:02009b0004a5ba
:02009c00049bc3
:02009d000490cd
:02009e000486d6
:02009f00047cdf
:0200a0000471e9
:0200a1000467f2
:0200a200045cfc
:0200a300045205
:0200a40004470f
:0200a500043d18
:0200a600043222
:0200a70004272c
:0200a800041c36
:0200a90004123f
:0200aa00040749
:0200ab0003fc54
:0200ac0003f15e
:0200ad0003e668
:0200ae0003db72
:0200af0003d07c
:0200b00003c586
:0200b10003ba90
:0200b20003af9a
:0200b30003a4a4
:0200b4000398af
:0200b500038db9
:0200b6000382c3
:0200b7000377cd
:0200b800036bd8
:0200b9000360e2
:0200ba000354ed
:0200bb000349f7
:0200bc00033e01
:0200bd0003320c
:0200be00032716
:0200bf00031b21
:0200c000030f2c
:0200c100030436
:0200c20002f842
:0200c30002ec4d
:0200c40002e157
:0200c50002d562
:0200c60002c96d
:0200c70002bd78
:0200c80002b282
:0200c90002a68d
:0200ca00029a98
:0200cb00028ea3
:0200cc000282ae
:0200cd000276b9
:0200ce00026ac4
:0200cf00025ecf
:0200d0000252da
:0200d1000246e5
:0200d200023af0
:0200d300022efb
:0200d400022206
:0200d500021611
:0200d600020a1c
:0200d70001fe28
:0200d80001f134
:0200d90001e53f
:0200da0001d94a
:0200db0001cd55
:0200dc0001c160
:0200dd0001b46c
:0200de0001a877
:0200df00019c82
:0200e000018f8e
:0200e100018399
:0200e2000177a4
:0200e300016ab0
:0200e400015ebb
:0200e5000152c6
:0200e6000145d2
:0200e7000139dd
:0200e800012ce9
:0200e9000120f4
:0200ea00011300
:0200eb0001070b
:0200ec0000fb17
:0200ed0000ee23
:0200ee0000e22e
:0200ef0000d53a
:0200f00000c945
:0200f10000bc51
:0200f20000b05c
:0200f30000a368
:0200f400009773
:0200f500008a7f
:0200f600007e8a
:0200f700007196
:0200f8000064a2
:0200f9000058ad
:0200fa00004bb9
:0200fb00003fc4
:0200fc000032d0
:0200fd000026db
:0200fe000019e7
:0200ff00000df2
:020100000000fd
:020101000ff3fa
:020102000fe705
:020103000fda11
:020104000fce1c
:020105000fc128
:020106000fb533
:020107000fa83f
:020108000f9c4a
:020109000f8f56
:02010a000f8262
:02010b000f766d
:02010c000f6979
:02010d000f5d84
:02010e000f5090
:02010f000f449b
:020110000f37a7
:020111000f2bb2
:020112000f1ebe
:020113000f12c9
:020114000f05d5
:020115000ef9e1
:020116000eedec
:020117000ee0f8
:020118000ed403
:020119000ec70f
:02011a000ebb1a
:02011b000eae26
:02011c000ea231
:02011d000e963c
:02011e000e8948
:02011f000e7d53
:020120000e715e
:020121000e646a
:020122000e5875
:020123000e4c80
:020124000e3f8c
:020125000e3397
:020126000e27a2
:020127000e1bad
:020128000e0fb8
:020129000e02c4
:02012a000df6d0
:02012b000deadb
:02012c000ddee6
:02012d000dd2f1
:02012e000dc6fc
:02012f000dba07
:020130000dae12
:020131000da21d
:020132000d9628
:020133000d8a33
:020134000d7e3e
:020135000d7249
:020136000d6654
:020137000d5a5f
:020138000d4e6a
:020139000d4374
:02013a000d377f
:02013b000d2b8a
:02013c000d1f95
:02013d000d149f
:02013e000d08aa
:02013f000cfcb6
:020140000cf1c0
:020141000ce5cb
:020142000cd9d6
:020143000ccee0
:020144000cc2eb
:020145000cb7f5
:020146000cacff
:020147000ca00a
:020148000c9514
:020149000c891f
:02014a000c7e29
:02014b000c7333
:02014c000c683d
:02014d000c5c48
:02014e000c5152
:02014f000c465c
:020150000c3b66
:020151000c3070
:020152000c257a
:020153000c1a84
:020154000c0f8e
:020155000c0498
:020156000bf9a3
:020157000beead
:020158000be4b6
:020159000bd9c0
:02015a000bceca
:02015b000bc3d4
:02015c000bb9dd
:02015d000baee7
:02015e000ba4f0
:02015f000b99fa
:020160000b8f03
:020161000b840d
:020162000b7a16
:020163000b701f
:020164000b6529
:020165000b5b32
:020166000b513b
:020167000b4744
:020168000b3d4d
:020169000b3356
:02016a000b295f
:02016b000b1f68
:02016c000b1571
:02016d000b0b7a
:02016e000b0183
:02016f000af78d
:020170000aed96
:020171000ae49e
:020172000adaa7
:020173000ad0b0
:020174000ac7b8
:020175000abdc1
:020176000ab4c9
:020177000aabd1
:020178000aa1da
:020179000a98e2
:02017a000a8fea
:02017b000a86f2
:02017c000a7dfa
:02017d000a7303
:02017e000a6a0b
:02017f000a6113
:020180000a591a
:020181000a5022
:020182000a472a
:020183000a3e32
:020184000a353a
:020185000a2d41
:020186000a2449
:020187000a1c50
:020188000a1358
:020189000a0b5f
:02018a000a0366
:02018b0009fa6f
:02018c0009f276
:02018d0009ea7d
:02018e0009e284
:02018f0009da8b
:0201900009d292
:0201910009ca99
:0201920009c2a0
:0201930009baa7
:0201940009b2ae
:0201950009abb4
:0201960009a3bb
:02019700099bc2
:020198000994c8
:02019900098ccf
:02019a000985d5
:02019b00097edb
:02019c000976e2
:02019d00096fe8
:02019e000968ee
:02019f000961f4
:0201a000095afa
:0201a100095300
:0201a200094c06
:0201a30009450c
:0201a400093f11
:0201a500093817
:0201a60009311d
:0201a700092b22
:0201a800092428
:0201a900091e2d
:0201aa00091733
:0201ab00091138
:0201ac00090b3d
:0201ad00090542
:0201ae0008ff48
:0201af0008f94d
:0201b00008f352
:0201b10008ed57
:0201b20008e75c
:0201b30008e161
:0201b40008dc65
:0201b50008d66a
:0201b60008d06f
:0201b70008cb73
:0201b80008c677
:0201b90008c07c
:0201ba0008bb80
:0201bb0008b684
:0201bc0008b188
:0201bd0008ac8c
:0201be0008a790
:0201bf0008a294
:0201c000089d98
:0201c10008989c
:0201c2000893a0
:0201c300088fa3
:0201c400088aa7
:0201c5000886aa
:0201c6000881ae
:0201c700087db1
:0201c8000879b4
:0201c9000874b8
:0201ca000870bb
:0201cb00086cbe
:0201cc000868c1
:0201cd000864c4
:0201ce000861c6
:0201cf00085dc9
:0201d0000859cc
:0201d1000856ce
:0201d2000852d1
:0201d300084fd3
:0201d400084bd6
:0201d5000848d8
:0201d6000845da
:0201d7000841dd
:0201d800083edf
:0201d900083be1
:0201da000838e3
:0201db000836e4
:0201dc000833e6
:0201dd000830e8
:0201de00082dea
:0201df00082beb
:0201e0000828ed
:0201e1000826ee
:0201e2000824ef
:0201e3000821f1
:0201e400081ff2
:0201e500081df3
:0201e600081bf4
:0201e7000819f5
:0201e8000817f6
:0201e9000815f7
:0201ea000814f7
:0201eb000812f8
:0201ec000810f9
:0201ed00080ff9
:0201ee00080dfa
:0201ef00080cfa
:0201f000080bfa
:0201f100080afa
:0201f2000809fa
:0201f3000808fa
:0201f4000807fa
:0201f5000806fa
:0201f6000805fa
:0201f7000804fa
:0201f8000803fa
:0201f9000803f9
:0201fa000802f9
:0201fb000802f8
:0201fc000802f7
:0201fd000801f7
:0201fe000801f6
:0201ff000801f5
:00000001FF
