:0200000007fff8
:0200010007fff7
:0200020007fff6
:0200030007fff5
:0200040007fff4
:0200050007fff3
:0200060007fff2
:0200070007fff1
:0200080007fef1
:0200090007fef0
:02000a0007feef
:02000b0007feee
:02000c0007feed
:02000d0007fded
:02000e0007fdec
:02000f0007fdeb
:0200100007fdea
:0200110007fcea
:0200120007fce9
:0200130007fce8
:0200140007fbe8
:0200150007fbe7
:0200160007fae7
:0200170007fae6
:0200180007f9e6
:0200190007f9e5
:02001a0007f8e5
:02001b0007f8e4
:02001c0007f7e4
:02001d0007f7e3
:02001e0007f6e3
:02001f0007f6e2
:0200200007f5e2
:0200210007f5e1
:0200220007f4e1
:0200230007f3e1
:0200240007f3e0
:0200250007f2e0
:0200260007f1e0
:0200270007f0e0
:0200280007f0df
:0200290007efdf
:02002a0007eedf
:02002b0007eddf
:02002c0007ecdf
:02002d0007ecde
:02002e0007ebde
:02002f0007eade
:0200300007e9de
:0200310007e8de
:0200320007e7de
:0200330007e6de
:0200340007e5de
:0200350007e4de
:0200360007e3de
:0200370007e2de
:0200380007e1de
:0200390007e0de
:02003a0007dfde
:02003b0007dede
:02003c0007dcdf
:02003d0007dbdf
:02003e0007dadf
:02003f0007d9df
:0200400007d8df
:0200410007d6e0
:0200420007d5e0
:0200430007d4e0
:0200440007d3e0
:0200450007d1e1
:0200460007d0e1
:0200470007cfe1
:0200480007cde2
:0200490007cce2
:02004a0007cae3
:02004b0007c9e3
:02004c0007c8e3
:02004d0007c6e4
:02004e0007c5e4
:02004f0007c3e5
:0200500007c2e5
:0200510007c0e6
:0200520007bfe6
:0200530007bde7
:0200540007bbe8
:0200550007bae8
:0200560007b8e9
:0200570007b7e9
:0200580007b5ea
:0200590007b3eb
:02005a0007b1ec
:02005b0007b0ec
:02005c0007aeed
:02005d0007acee
:02005e0007aaef
:02005f0007a9ef
:0200600007a7f0
:0200610007a5f1
:0200620007a3f2
:0200630007a1f3
:02006400079ff4
:02006500079ef4
:02006600079cf5
:02006700079af6
:020068000798f7
:020069000796f8
:02006a000794f9
:02006b000792fa
:02006c000790fb
:02006d00078efc
:02006e00078cfd
:02006f000789ff
:02007000078700
:02007100078501
:02007200078302
:02007300078103
:02007400077f04
:02007500077d05
:02007600077a07
:02007700077808
:02007800077609
:0200790007740a
:02007a0007710c
:02007b00076f0d
:02007c00076d0e
:02007d00076a10
:02007e00076811
:02007f00076612
:02008000076314
:02008100076115
:02008200075e17
:02008300075c18
:0200840007591a
:0200850007571b
:0200860007541d
:0200870007521e
:02008800074f20
:02008900074d21
:02008a00074a23
:02008b00074824
:02008c00074526
:02008d00074228
:02008e00074029
:02008f00073d2b
:02009000073a2d
:0200910007382e
:02009200073530
:02009300073232
:02009400073033
:02009500072d35
:02009600072a37
:02009700072739
:0200980007243b
:0200990007223c
:02009a00071f3e
:02009b00071c40
:02009c00071942
:02009d00071644
:02009e00071346
:02009f00071048
:0200a000070d4a
:0200a100070a4c
:0200a20007074e
:0200a300070450
:0200a400070152
:0200a50006fe55
:0200a60006fb57
:0200a70006f859
:0200a80006f55b
:0200a90006f25d
:0200aa0006ef5f
:0200ab0006ec61
:0200ac0006e963
:0200ad0006e566
:0200ae0006e268
:0200af0006df6a
:0200b00006dc6c
:0200b10006d96e
:0200b20006d571
:0200b30006d273
:0200b40006cf75
:0200b50006cb78
:0200b60006c87a
:0200b70006c57c
:0200b80006c17f
:0200b90006be81
:0200ba0006bb83
:0200bb0006b786
:0200bc0006b488
:0200bd0006b08b
:0200be0006ad8d
:0200bf0006a990
:0200c00006a692
:0200c10006a394
:0200c200069f97
:0200c300069b9a
:0200c40006989c
:0200c50006949f
:0200c6000691a1
:0200c700068da4
:0200c800068aa6
:0200c9000686a9
:0200ca000682ac
:0200cb00067fae
:0200cc00067bb1
:0200cd000677b4
:0200ce000674b6
:0200cf000670b9
:0200d000066cbc
:0200d1000668bf
:0200d2000665c1
:0200d3000661c4
:0200d400065dc7
:0200d5000659ca
:0200d6000655cd
:0200d7000652cf
:0200d800064ed2
:0200d900064ad5
:0200da000646d8
:0200db000642db
:0200dc00063ede
:0200dd00063ae1
:0200de000636e4
:0200df000632e7
:0200e000062eea
:0200e100062aed
:0200e2000626f0
:0200e3000622f3
:0200e400061ef6
:0200e500061af9
:0200e6000616fc
:0200e7000612ff
:0200e800060e02
:0200e900060a05
:0200ea00060608
:0200eb0006020b
:0200ec0005fd10
:0200ed0005f913
:0200ee0005f516
:0200ef0005f119
:0200f00005ed1c
:0200f10005e91f
:0200f20005e423
:0200f30005e026
:0200f40005dc29
:0200f50005d72d
:0200f60005d330
:0200f70005cf33
:0200f80005cb36
:0200f90005c63a
:0200fa0005c23d
:0200fb0005bd41
:0200fc0005b944
:0200fd0005b547
:0200fe0005b04b
:0200ff0005ac4e
:0201000005a751
:0201010005a354
:02010200059f57
:02010300059a5b
:0201040005965e
:02010500059162
:02010600058d65
:02010700058869
:0201080005836d
:02010900057f70
:02010a00057a74
:02010b00057677
:02010c0005717b
:02010d00056d7e
:02010e00056882
:02010f00056386
:02011000055f89
:02011100055a8d
:02011200055591
:02011300055194
:02011400054c98
:0201150005479c
:0201160005439f
:02011700053ea3
:020118000539a7
:020119000534ab
:02011a000530ae
:02011b00052bb2
:02011c000526b6
:02011d000521ba
:02011e00051cbe
:02011f000517c2
:020120000513c5
:02012100050ec9
:020122000509cd
:020123000504d1
:0201240004ffd6
:0201250004fada
:0201260004f5de
:0201270004f0e2
:0201280004ebe6
:0201290004e6ea
:02012a0004e1ee
:02012b0004dcf2
:02012c0004d7f6
:02012d0004d2fa
:02012e0004cdfe
:02012f0004c802
:0201300004c306
:0201310004be0a
:0201320004b90e
:0201330004b412
:0201340004af16
:0201350004aa1a
:0201360004a51e
:0201370004a022
:02013800049b26
:0201390004962a
:02013a0004902f
:02013b00048b33
:02013c00048637
:02013d0004813b
:02013e00047c3f
:02013f00047644
:02014000047148
:02014100046c4c
:02014200046750
:02014300046254
:02014400045c59
:0201450004575d
:02014600045261
:02014700044c66
:0201480004476a
:0201490004426e
:02014a00043d72
:02014b00043777
:02014c0004327b
:02014d00042c80
:02014e00042784
:02014f00042288
:02015000041c8d
:02015100041791
:02015200041295
:02015300040c9a
:0201540004079e
:020155000401a3
:0201560003fca8
:0201570003f6ad
:0201580003f1b1
:0201590003ebb6
:02015a0003e6ba
:02015b0003e1be
:02015c0003dbc3
:02015d0003d6c7
:02015e0003d0cc
:02015f0003cad1
:0201600003c5d5
:0201610003bfda
:0201620003bade
:0201630003b4e3
:0201640003afe7
:0201650003a9ec
:0201660003a4f0
:02016700039ef5
:020168000398fa
:020169000393fe
:02016a00038d03
:02016b00038708
:02016c0003820c
:02016d00037c11
:02016e00037715
:02016f0003711a
:02017000036b1f
:02017100036623
:02017200036028
:02017300035a2d
:02017400035432
:02017500034f36
:0201760003493b
:02017700034340
:02017800033e44
:02017900033849
:02017a0003324e
:02017b00032c53
:02017c00032757
:02017d0003215c
:02017e00031b61
:02017f00031566
:02018000030f6b
:02018100030a6f
:02018200030474
:0201830002fe7a
:0201840002f87f
:0201850002f284
:0201860002ec89
:0201870002e78d
:0201880002e192
:0201890002db97
:02018a0002d59c
:02018b0002cfa1
:02018c0002c9a6
:02018d0002c3ab
:02018e0002bdb0
:02018f0002b8b4
:0201900002b2b9
:0201910002acbe
:0201920002a6c3
:0201930002a0c8
:02019400029acd
:020195000294d2
:02019600028ed7
:020197000288dc
:020198000282e1
:02019900027ce6
:02019a000276eb
:02019b000270f0
:02019c00026af5
:02019d000264fa
:02019e00025eff
:02019f00025804
:0201a000025209
:0201a100024c0e
:0201a200024613
:0201a300024018
:0201a400023a1d
:0201a500023422
:0201a600022e27
:0201a70002282c
:0201a800022231
:0201a900021c36
:0201aa0002163b
:0201ab00021040
:0201ac00020a45
:0201ad0002044a
:0201ae0001fe50
:0201af0001f756
:0201b00001f15b
:0201b10001eb60
:0201b20001e565
:0201b30001df6a
:0201b40001d96f
:0201b50001d374
:0201b60001cd79
:0201b70001c77e
:0201b80001c183
:0201b90001ba89
:0201ba0001b48e
:0201bb0001ae93
:0201bc0001a898
:0201bd0001a29d
:0201be00019ca2
:0201bf000196a7
:0201c000018fad
:0201c1000189b2
:0201c2000183b7
:0201c300017dbc
:0201c4000177c1
:0201c5000171c6
:0201c600016acc
:0201c7000164d1
:0201c800015ed6
:0201c9000158db
:0201ca000152e0
:0201cb00014be6
:0201cc000145eb
:0201cd00013ff0
:0201ce000139f5
:0201cf000133fa
:0201d000012c00
:0201d100012605
:0201d20001200a
:0201d300011a0f
:0201d400011315
:0201d500010d1a
:0201d60001071f
:0201d700010124
:0201d80000fb2a
:0201d90000f430
:0201da0000ee35
:0201db0000e83a
:0201dc0000e23f
:0201dd0000db45
:0201de0000d54a
:0201df0000cf4f
:0201e00000c954
:0201e10000c25a
:0201e20000bc5f
:0201e30000b664
:0201e40000b069
:0201e50000a96f
:0201e60000a374
:0201e700009d79
:0201e80000977e
:0201e900009084
:0201ea00008a89
:0201eb0000848e
:0201ec00007e93
:0201ed00007799
:0201ee0000719e
:0201ef00006ba3
:0201f0000064a9
:0201f100005eae
:0201f2000058b3
:0201f3000052b8
:0201f400004bbe
:0201f5000045c3
:0201f600003fc8
:0201f7000039cd
:0201f8000032d3
:0201f900002cd8
:0201fa000026dd
:0201fb00001fe3
:0201fc000019e8
:0201fd000013ed
:0201fe00000df2
:0201ff000006f8
:00000001FF
