:020000000000fe
:020001000013ea
:020002000026d6
:020003000039c2
:02000400004baf
:02000500005e9b
:02000600007187
:02000700008473
:0200080000975f
:0200090000a94c
:02000a0000bc38
:02000b0000cf24
:02000c0000e210
:02000d0000f4fd
:02000e000107e8
:02000f00011ad4
:02001000012cc1
:02001100013fad
:02001200015299
:02001300016486
:02001400017772
:0200150001895f
:02001600019c4b
:0200170001ae38
:0200180001c124
:0200190001d311
:02001a0001e5fe
:02001b0001f7eb
:02001c00020ad6
:02001d00021cc3
:02001e00022eb0
:02001f0002409d
:0200200002528a
:02002100026477
:02002200027664
:02002300028851
:02002400029a3e
:0200250002ac2b
:0200260002bd19
:0200270002cf06
:0200280002e1f3
:0200290002f2e1
:02002a000304cd
:02002b000315bb
:02002c000327a8
:02002d00033896
:02002e00034984
:02002f00035a72
:02003000036b60
:02003100037c4e
:02003200038d3c
:02003300039e2a
:0200340003af18
:0200350003bf07
:0200360003d0f5
:0200370003e1e3
:0200380003f1d2
:020039000401c0
:02003a000412ae
:02003b0004229d
:02003c0004328c
:02003d0004427b
:02003e0004526a
:02003f00046259
:02004000047149
:02004100048138
:02004200049028
:0200430004a017
:0200440004af07
:0200450004bef7
:0200460004cde7
:0200470004dcd7
:0200480004ebc7
:0200490004fab7
:02004a000509a6
:02004b00051797
:02004c00052687
:02004d00053478
:02004e00054368
:02004f00055159
:02005000055f4a
:02005100056d3b
:02005200057a2d
:0200530005881e
:0200540005960f
:0200550005a301
:0200560005b0f3
:0200570005bde5
:0200580005cbd6
:0200590005d7c9
:02005a0005e4bb
:02005b0005f1ad
:02005c0005fda0
:02005d00060a91
:02005e00061684
:02005f00062277
:02006000062e6a
:02006100063a5d
:02006200064650
:02006300065243
:02006400065d37
:0200650006682b
:0200660006741e
:02006700067f12
:02006800068a06
:020069000694fb
:02006a00069fef
:02006b0006a9e4
:02006c0006b4d8
:02006d0006becd
:02006e0006c8c2
:02006f0006d2b7
:0200700006dcac
:0200710006e5a2
:0200720006ef97
:0200730006f88d
:02007400070182
:02007500070a78
:0200760007136e
:02007700071c64
:0200780007245b
:02007900072d51
:02007a00073548
:02007b00073d3f
:02007c00074536
:02007d00074d2d
:02007e00075425
:02007f00075c1c
:02008000076314
:02008100076a0c
:02008200077104
:020083000778fc
:02008400077ff4
:020085000785ed
:02008600078ce5
:020087000792de
:020088000798d7
:02008900079ed0
:02008a0007a3ca
:02008b0007a9c3
:02008c0007aebd
:02008d0007b3b7
:02008e0007b8b1
:02008f0007bdab
:0200900007c2a5
:0200910007c6a0
:0200920007ca9b
:0200930007cf95
:0200940007d390
:0200950007d68c
:0200960007da87
:0200970007de82
:0200980007e17e
:0200990007e47a
:02009a0007e776
:02009b0007ea72
:02009c0007ec6f
:02009d0007ef6b
:02009e0007f168
:02009f0007f365
:0200a00007f562
:0200a10007f75f
:0200a20007f85d
:0200a30007fa5a
:0200a40007fb58
:0200a50007fc56
:0200a60007fd54
:0200a70007fe52
:0200a80007fe51
:0200a90007ff4f
:0200aa0007ff4e
:0200ab0007ff4d
:0200ac0007ff4c
:0200ad0007ff4b
:0200ae0007fe4b
:0200af0007fd4b
:0200b00007fd4a
:0200b10007fc4a
:0200b20007fa4b
:0200b30007f94b
:0200b40007f74c
:0200b50007f64c
:0200b60007f44d
:0200b70007f24e
:0200b80007f04f
:0200b90007ed51
:0200ba0007eb52
:0200bb0007e854
:0200bc0007e556
:0200bd0007e258
:0200be0007df5a
:0200bf0007db5d
:0200c00007d85f
:0200c10007d462
:0200c20007d065
:0200c30007cc68
:0200c40007c86b
:0200c50007c36f
:0200c60007bf72
:0200c70007ba76
:0200c80007b57a
:0200c90007b07e
:0200ca0007aa83
:0200cb0007a587
:0200cc00079f8c
:0200cd00079a90
:0200ce00079495
:0200cf00078e9a
:0200d0000787a0
:0200d1000781a5
:0200d200077aab
:0200d3000774b0
:0200d400076db6
:0200d5000766bc
:0200d600075ec3
:0200d7000757c9
:0200d800074fd0
:0200d9000748d6
:0200da000740dd
:0200db000738e4
:0200dc000730eb
:0200dd000727f3
:0200de00071ffa
:0200df00071602
:0200e000070d0a
:0200e100070412
:0200e20006fb1b
:0200e30006f223
:0200e40006e92b
:0200e50006df34
:0200e60006d53d
:0200e70006cb46
:0200e80006c14f
:0200e90006b758
:0200ea0006ad61
:0200eb0006a36a
:0200ec00069874
:0200ed00068d7e
:0200ee00068288
:0200ef00067792
:0200f000066c9c
:0200f1000661a6
:0200f2000655b1
:0200f300064abb
:0200f400063ec6
:0200f5000632d1
:0200f6000626dc
:0200f700061ae7
:0200f800060ef2
:0200f9000602fd
:0200fa0005f50a
:0200fb0005e915
:0200fc0005dc21
:0200fd0005cf2d
:0200fe0005c239
:0200ff0005b545
:0201000005a751
:02010100059a5d
:02010200058d69
:02010300057f76
:02010400057183
:02010500056390
:0201060005559d
:020107000547aa
:020108000539b7
:02010900052bc4
:02010a00051cd2
:02010b00050edf
:02010c0004ffee
:02010d0004f0fc
:02010e0004e10a
:02010f0004d218
:0201100004c326
:0201110004b434
:0201120004a542
:02011300049650
:0201140004865f
:0201150004766e
:0201160004677c
:0201170004578b
:0201180004479a
:020119000437a9
:02011a000427b8
:02011b000417c7
:02011c000407d6
:02011d0003f6e7
:02011e0003e6f6
:02011f0003d605
:0201200003c515
:0201210003b425
:0201220003a434
:02012300039344
:02012400038254
:02012500037164
:02012600036074
:02012700034f84
:02012800033e94
:02012900032ca5
:02012a00031bb5
:02012b00030ac5
:02012c0002f8d7
:02012d0002e7e7
:02012e0002d5f8
:02012f0002c309
:0201300002b219
:0201310002a02a
:02013200028e3b
:02013300027c4c
:02013400026a5d
:0201350002586e
:0201360002467f
:02013700023490
:020138000222a1
:020139000210b2
:02013a0001fec4
:02013b0001ebd6
:02013c0001d9e7
:02013d0001c7f8
:02013e0001b40a
:02013f0001a21b
:02014000018f2d
:02014100017d3e
:02014200016a50
:02014300015861
:02014400014573
:02014500013384
:02014600012096
:02014700010da8
:0201480000fbba
:0201490000e8cc
:02014a0000d5de
:02014b0000c2f0
:02014c0000b001
:02014d00009d13
:02014e00008a25
:02014f00007737
:02015000006449
:0201510000525a
:02015200003f6c
:02015300002c7e
:02015400001990
:020155000006a2
:020156000ff3a5
:020157000fe1b6
:020158000fcec8
:020159000fbbda
:02015a000fa8ec
:02015b000f95fe
:02015c000f8210
:02015d000f7021
:02015e000f5d33
:02015f000f4a45
:020160000f3757
:020161000f2568
:020162000f127a
:020163000eff8d
:020164000eed9e
:020165000edab0
:020166000ec7c2
:020167000eb5d3
:020168000ea2e5
:020169000e8ff7
:02016a000e7d08
:02016b000e6a1a
:02016c000e582b
:02016d000e463c
:02016e000e334e
:02016f000e215f
:020170000e0f70
:020171000dfc83
:020172000dea94
:020173000dd8a5
:020174000dc6b6
:020175000db4c7
:020176000da2d8
:020177000d90e9
:020178000d7efa
:020179000d6c0b
:02017a000d5a1c
:02017b000d482d
:02017c000d373d
:02017d000d254e
:02017e000d145e
:02017f000d026f
:020180000cf180
:020181000cdf91
:020182000ccea1
:020183000cbdb1
:020184000cacc1
:020185000c9ad2
:020186000c89e2
:020187000c79f1
:020188000c6801
:020189000c5711
:02018a000c4621
:02018b000c3630
:02018c000c2540
:02018d000c154f
:02018e000c045f
:02018f000bf46f
:020190000be47e
:020191000bd48d
:020192000bc39d
:020193000bb4ab
:020194000ba4ba
:020195000b94c9
:020196000b84d8
:020197000b75e6
:020198000b65f5
:020199000b5603
:02019a000b4711
:02019b000b381f
:02019c000b292d
:02019d000b1a3b
:02019e000b0b49
:02019f000afc58
:0201a0000aed66
:0201a1000adf73
:0201a2000ad081
:0201a3000ac28e
:0201a4000ab49b
:0201a5000aa6a8
:0201a6000a98b5
:0201a7000a8ac2
:0201a8000a7dce
:0201a9000a6fdb
:0201aa000a61e8
:0201ab000a54f4
:0201ac000a4700
:0201ad000a3a0c
:0201ae000a2d18
:0201af000a2024
:0201b0000a1330
:0201b1000a073b
:0201b20009fa48
:0201b30009ee53
:0201b40009e25e
:0201b50009d669
:0201b60009ca74
:0201b70009be7f
:0201b80009b28a
:0201b90009a794
:0201ba00099b9f
:0201bb000990a9
:0201bc000985b3
:0201bd00097abd
:0201be00096fc7
:0201bf000965d0
:0201c000095ada
:0201c1000950e3
:0201c2000945ed
:0201c300093bf6
:0201c4000931ff
:0201c500092708
:0201c600091e10
:0201c700091419
:0201c800090b21
:0201c900090229
:0201ca0008f932
:0201cb0008f03a
:0201cc0008e742
:0201cd0008de4a
:0201ce0008d651
:0201cf0008ce58
:0201d00008c65f
:0201d10008be66
:0201d20008b66d
:0201d30008ae74
:0201d40008a77a
:0201d500089f81
:0201d600089887
:0201d70008918d
:0201d800088a93
:0201d900088399
:0201da00087d9e
:0201db000877a3
:0201dc000870a9
:0201dd00086aae
:0201de000864b3
:0201df00085fb7
:0201e0000859bc
:0201e1000854c0
:0201e200084fc4
:0201e3000849c9
:0201e4000845cc
:0201e5000840d0
:0201e600083bd4
:0201e7000837d7
:0201e8000833da
:0201e900082fdd
:0201ea00082be0
:0201eb000827e3
:0201ec000824e5
:0201ed000820e8
:0201ee00081dea
:0201ef00081aec
:0201f0000817ee
:0201f1000814f0
:0201f2000812f1
:0201f3000810f2
:0201f400080df4
:0201f500080bf5
:0201f600080af5
:0201f7000808f6
:0201f8000807f6
:0201f9000805f7
:0201fa000804f7
:0201fb000803f7
:0201fc000802f7
:0201fd000802f6
:0201fe000801f6
:0201ff000801f5
:00000001FF
