:0200000007fff8
:0200010007fff7
:0200020007fff6
:0200030007fef6
:0200040007fef5
:0200050007fdf5
:0200060007fcf5
:0200070007fbf5
:0200080007f9f6
:0200090007f8f6
:02000a0007f6f7
:02000b0007f5f7
:02000c0007f3f8
:02000d0007f0fa
:02000e0007eefb
:02000f0007ecfc
:0200100007e9fe
:0200110007e600
:0200120007e302
:0200130007e004
:0200140007dc07
:0200150007d909
:0200160007d50c
:0200170007d10f
:0200180007cd12
:0200190007c915
:02001a0007c518
:02001b0007c01c
:02001c0007bb20
:02001d0007b723
:02001e0007b128
:02001f0007ac2c
:0200200007a730
:0200210007a135
:02002200079c39
:0200230007963e
:02002400079043
:02002500078949
:0200260007834e
:02002700077d53
:02002800077659
:02002900076f5f
:02002a00076865
:02002b0007616b
:02002c00075972
:02002d00075278
:02002e00074a7f
:02002f00074286
:02003000073a8d
:02003100073294
:02003200072a9b
:020033000722a2
:020034000719aa
:020035000710b2
:020036000707ba
:0200370006fec3
:0200380006f5cb
:0200390006ecd3
:02003a0006e2dc
:02003b0006d9e4
:02003c0006cfed
:02003d0006c5f6
:02003e0006bbff
:02003f0006b009
:0200400006a612
:02004100069b1c
:02004200069125
:0200430006862f
:02004400067b39
:02004500067043
:0200460006654d
:02004700065958
:02004800064e62
:0200490006426d
:02004a00063678
:02004b00062a83
:02004c00061e8e
:02004d00061299
:02004e000606a4
:02004f0005f9b1
:0200500005edbc
:0200510005e0c8
:0200520005d3d4
:0200530005c6e0
:0200540005b9ec
:0200550005acf8
:02005600059f04
:02005700059111
:0200580005831e
:0200590005762a
:02005a00056837
:02005b00055a44
:02005c00054c51
:02005d00053e5e
:02005e0005306b
:02005f00052179
:02006000051386
:02006100050494
:0200620004f5a3
:0200630004e6b1
:0200640004d7bf
:0200650004c8cd
:0200660004b9db
:0200670004aae9
:02006800049bf7
:02006900048b06
:02006a00047c14
:02006b00046c23
:02006c00045c32
:02006d00044c41
:02006e00043d4f
:02006f00042c5f
:02007000041c6e
:02007100040c7d
:0200720003fc8d
:0200730003eb9d
:0200740003dbac
:0200750003cabc
:0200760003bacb
:0200770003a9db
:020078000398eb
:020079000387fb
:02007a0003770a
:02007b0003661a
:02007c0003542b
:02007d0003433b
:02007e0003324b
:02007f0003215b
:02008000030f6c
:0200810002fe7d
:0200820002ec8e
:0200830002db9e
:0200840002c9af
:0200850002b8bf
:0200860002a6d0
:020087000294e1
:020088000282f2
:02008900027003
:02008a00025e14
:02008b00024c25
:02008c00023a36
:02008d00022847
:02008e00021658
:02008f00020469
:0200900001f17c
:0200910001df8d
:0200920001cd9e
:0200930001bab0
:0200940001a8c1
:020095000196d2
:020096000183e4
:020097000171f5
:02009800015e07
:02009900014b19
:02009a0001392a
:02009b0001263c
:02009c0001134e
:02009d0001015f
:02009e0000ee72
:02009f0000db84
:0200a00000c995
:0200a10000b6a7
:0200a20000a3b9
:0200a3000090cb
:0200a400007edc
:0200a500006bee
:0200a600005800
:0200a700004512
:0200a800003224
:0200a900001f36
:0200aa00000d47
:0200ab000ffa4a
:0200ac000fe75c
:0200ad000fd46e
:0200ae000fc180
:0200af000fae92
:0200b0000f9ca3
:0200b1000f89b5
:0200b2000f76c7
:0200b3000f63d9
:0200b4000f50eb
:0200b5000f3efc
:0200b6000f2b0e
:0200b7000f1820
:0200b8000f0532
:0200b9000ef344
:0200ba000ee056
:0200bb000ecd68
:0200bc000ebb79
:0200bd000ea88b
:0200be000e969c
:0200bf000e83ae
:0200c0000e71bf
:0200c1000e5ed1
:0200c2000e4ce2
:0200c3000e39f4
:0200c4000e2705
:0200c5000e1516
:0200c6000e0228
:0200c7000df03a
:0200c8000dde4b
:0200c9000dcc5c
:0200ca000dba6d
:0200cb000da87e
:0200cc000d968f
:0200cd000d84a0
:0200ce000d72b1
:0200cf000d60c2
:0200d0000d4ed3
:0200d1000d3de3
:0200d2000d2bf4
:0200d3000d1905
:0200d4000d0815
:0200d5000cf627
:0200d6000ce537
:0200d7000cd447
:0200d8000cc258
:0200d9000cb168
:0200da000ca078
:0200db000c8f88
:0200dc000c7e98
:0200dd000c6da8
:0200de000c5cb8
:0200df000c4cc7
:0200e0000c3bd7
:0200e1000c2ae7
:0200e2000c1af6
:0200e3000c0a05
:0200e4000bf916
:0200e5000be925
:0200e6000bd934
:0200e7000bc943
:0200e8000bb952
:0200e9000ba961
:0200ea000b9970
:0200eb000b8a7e
:0200ec000b7a8d
:0200ed000b6a9c
:0200ee000b5baa
:0200ef000b4cb8
:0200f0000b3dc6
:0200f1000b2ed4
:0200f2000b1fe2
:0200f3000b10f0
:0200f4000b01fe
:0200f5000af20d
:0200f6000ae41a
:0200f7000ad528
:0200f8000ac735
:0200f9000ab942
:0200fa000aab4f
:0200fb000a9d5c
:0200fc000a8f69
:0200fd000a8176
:0200fe000a7383
:0200ff000a668f
:020100000a599a
:020101000a4ba7
:020102000a3eb3
:020103000a31bf
:020104000a24cb
:020105000a17d7
:020106000a0be2
:0201070009feef
:0201080009f2fa
:0201090009e605
:02010a0009da10
:02010b0009ce1b
:02010c0009c226
:02010d0009b631
:02010e0009ab3b
:02010f00099f46
:02011000099450
:0201110009895a
:02011200097e64
:0201130009736e
:02011400096878
:02011500095d82
:0201160009538b
:02011700094994
:02011800093f9d
:020119000935a6
:02011a00092baf
:02011b000921b8
:02011c000917c1
:02011d00090ec9
:02011e000905d1
:02011f0008fcda
:0201200008f3e2
:0201210008eaea
:0201220008e1f2
:0201230008d9f9
:0201240008d001
:0201250008c808
:0201260008c00f
:0201270008b816
:0201280008b11c
:0201290008a923
:02012a0008a229
:02012b00089a30
:02012c00089336
:02012d00088c3c
:02012e00088641
:02012f00087f47
:0201300008794c
:02013100087252
:02013200086c57
:0201330008665c
:02013400086160
:02013500085b65
:02013600085669
:0201370008506e
:02013800084b72
:02013900084676
:02013a0008417a
:02013b00083d7d
:02013c00083881
:02013d00083484
:02013e00083087
:02013f00082c8a
:0201400008288d
:0201410008258f
:02014200082192
:02014300081e94
:02014400081b96
:02014500081898
:0201460008159a
:0201470008139b
:0201480008109d
:02014900080e9e
:02014a00080c9f
:02014b00080aa0
:02014c000809a0
:02014d000807a1
:02014e000806a1
:02014f000804a2
:020150000803a2
:020151000803a1
:020152000802a1
:020153000801a1
:020154000801a0
:0201550008019f
:0201560008019e
:0201570008019d
:0201580008029b
:0201590008029a
:02015a00080398
:02015b00080496
:02015c00080594
:02015d00080692
:02015e0008088f
:02015f0008098d
:02016000080b8a
:02016100080d87
:02016200080f84
:02016300081181
:0201640008147d
:0201650008167a
:02016600081976
:02016700081c72
:02016800081f6e
:0201690008226a
:02016a00082665
:02016b00082a60
:02016c00082d5c
:02016d00083157
:02016e00083651
:02016f00083a4c
:02017000083e47
:02017100084341
:0201720008483b
:02017300084d35
:0201740008522f
:02017500085729
:02017600085d22
:0201770008621c
:02017800086815
:02017900086e0e
:02017a00087407
:02017b00087bff
:02017c000881f8
:02017d000888f0
:02017e00088fe8
:02017f000896e0
:02018000089dd8
:0201810008a4d0
:0201820008acc7
:0201830008b3bf
:0201840008bbb6
:0201850008c3ad
:0201860008cba4
:0201870008d39b
:0201880008dc91
:0201890008e488
:02018a0008ed7e
:02018b0008f674
:02018c0008ff6a
:02018d0009085f
:02018e00091155
:02018f00091b4a
:02019000092440
:02019100092e35
:0201920009382a
:0201930009421f
:02019400094c14
:02019500095708
:020196000961fd
:02019700096cf1
:020198000976e6
:020199000981da
:02019a00098cce
:02019b000998c1
:02019c0009a3b5
:02019d0009aea9
:02019e0009ba9c
:02019f0009c68f
:0201a00009d282
:0201a10009de75
:0201a20009ea68
:0201a30009f65b
:0201a4000a034c
:0201a5000a0f3f
:0201a6000a1c31
:0201a7000a2923
:0201a8000a3516
:0201a9000a4307
:0201aa000a50f9
:0201ab000a5deb
:0201ac000a6add
:0201ad000a78ce
:0201ae000a86bf
:0201af000a93b1
:0201b0000aa1a2
:0201b1000aaf93
:0201b2000abd84
:0201b3000acc74
:0201b4000ada65
:0201b5000ae955
:0201b6000af746
:0201b7000b0635
:0201b8000b1525
:0201b9000b2415
:0201ba000b3305
:0201bb000b42f5
:0201bc000b51e5
:0201bd000b60d5
:0201be000b70c4
:0201bf000b7fb4
:0201c0000b8fa3
:0201c1000b9e93
:0201c2000bae82
:0201c3000bbe71
:0201c4000bce60
:0201c5000bde4f
:0201c6000bee3e
:0201c7000bff2c
:0201c8000c0f1a
:0201c9000c1f09
:0201ca000c30f7
:0201cb000c41e5
:0201cc000c51d4
:0201cd000c62c2
:0201ce000c73b0
:0201cf000c849e
:0201d0000c958c
:0201d1000ca67a
:0201d2000cb768
:0201d3000cc856
:0201d4000cd944
:0201d5000ceb31
:0201d6000cfc1f
:0201d7000d0e0b
:0201d8000d1ff9
:0201d9000d31e6
:0201da000d43d3
:0201db000d54c1
:0201dc000d66ae
:0201dd000d789b
:0201de000d8a88
:0201df000d9c75
:0201e0000dae62
:0201e1000dc04f
:0201e2000dd23c
:0201e3000de429
:0201e4000df616
:0201e5000e0901
:0201e6000e1bee
:0201e7000e2ddb
:0201e8000e3fc8
:0201e9000e52b4
:0201ea000e64a1
:0201eb000e778d
:0201ec000e897a
:0201ed000e9c66
:0201ee000eae53
:0201ef000ec13f
:0201f0000ed42b
:0201f1000ee618
:0201f2000ef904
:0201f3000f0cef
:0201f4000f1edc
:0201f5000f31c8
:0201f6000f44b4
:0201f7000f57a0
:0201f8000f698d
:0201f9000f7c79
:0201fa000f8f65
:0201fb000fa251
:0201fc000fb53d
:0201fd000fc72a
:0201fe000fda16
:0201ff000fed02
:00000001FF
