:020000000000fe
:02000100000df0
:020002000019e3
:020003000026d5
:020004000032c8
:02000500003fba
:02000600004bad
:0200070000589f
:02000800006492
:02000900007184
:02000a00007e76
:02000b00008a69
:02000c0000975b
:02000d0000a34e
:02000e0000b040
:02000f0000bc33
:0200100000c925
:0200110000d518
:0200120000e20a
:0200130000eefd
:0200140000fbef
:020015000107e1
:020016000113d4
:020017000120c6
:02001800012cb9
:020019000139ab
:02001a0001459e
:02001b00015290
:02001c00015e83
:02001d00016a76
:02001e00017768
:02001f0001835b
:02002000018f4e
:02002100019c40
:0200220001a833
:0200230001b426
:0200240001c118
:0200250001cd0b
:0200260001d9fe
:0200270001e5f1
:0200280001f1e4
:0200290001fed6
:02002a00020ac8
:02002b000216bb
:02002c000222ae
:02002d00022ea1
:02002e00023a94
:02002f00024687
:0200300002527a
:02003100025e6d
:02003200026a60
:02003300027653
:02003400028246
:02003500028e39
:02003600029a2c
:0200370002a61f
:0200380002b212
:0200390002bd06
:02003a0002c9f9
:02003b0002d5ec
:02003c0002e1df
:02003d0002ecd3
:02003e0002f8c6
:02003f000304b8
:02004000030fac
:02004100031b9f
:02004200032792
:02004300033286
:02004400033e79
:0200450003496d
:02004600035461
:02004700036054
:02004800036b48
:0200490003773b
:02004a0003822f
:02004b00038d23
:02004c00039817
:02004d0003a40a
:02004e0003affe
:02004f0003baf2
:0200500003c5e6
:0200510003d0da
:0200520003dbce
:0200530003e6c2
:0200540003f1b6
:0200550003fcaa
:0200560004079d
:02005700041291
:02005800041c86
:0200590004277a
:02005a0004326e
:02005b00043d62
:02005c00044757
:02005d0004524b
:02005e00045c40
:02005f00046734
:02006000047129
:02006100047c1d
:02006200048612
:02006300049007
:02006400049bfb
:0200650004a5f0
:0200660004afe5
:0200670004b9da
:0200680004c3cf
:0200690004cdc4
:02006a0004d7b9
:02006b0004e1ae
:02006c0004eba3
:02006d0004f598
:02006e0004ff8d
:02006f00050981
:02007000051376
:02007100051c6c
:02007200052661
:02007300053056
:0200740005394c
:02007500054341
:02007600054c37
:0200770005552d
:02007800055f22
:02007900056818
:02007a0005710e
:02007b00057a04
:02007c000583fa
:02007d00058def
:02007e000596e5
:02007f00059fdb
:0200800005a7d2
:0200810005b0c8
:0200820005b9be
:0200830005c2b4
:0200840005cbaa
:0200850005d3a1
:0200860005dc97
:0200870005e48e
:0200880005ed84
:0200890005f57b
:02008a0005fd72
:02008b00060667
:02008c00060e5e
:02008d00061655
:02008e00061e4c
:02008f00062643
:02009000062e3a
:02009100063631
:02009200063e28
:0200930006461f
:02009400064e16
:0200950006550e
:02009600065d05
:020097000665fc
:02009800066cf4
:020099000674eb
:02009a00067be3
:02009b000682db
:02009c00068ad2
:02009d000691ca
:02009e000698c2
:02009f00069fba
:0200a00006a6b2
:0200a10006adaa
:0200a20006b4a2
:0200a30006bb9a
:0200a40006c193
:0200a50006c88b
:0200a60006cf83
:0200a70006d57c
:0200a80006dc74
:0200a90006e26d
:0200aa0006e965
:0200ab0006ef5e
:0200ac0006f557
:0200ad0006fb50
:0200ae00070148
:0200af00070741
:0200b000070d3a
:0200b100071333
:0200b20007192c
:0200b300071f25
:0200b40007241f
:0200b500072a18
:0200b600073011
:0200b70007350b
:0200b800073a05
:0200b9000740fe
:0200ba000745f8
:0200bb00074af2
:0200bc00074fec
:0200bd000754e6
:0200be000759e0
:0200bf00075eda
:0200c0000763d4
:0200c1000768ce
:0200c200076dc8
:0200c3000771c3
:0200c4000776bd
:0200c500077ab8
:0200c600077fb2
:0200c7000783ad
:0200c8000787a8
:0200c900078ca2
:0200ca0007909d
:0200cb00079498
:0200cc00079893
:0200cd00079c8e
:0200ce00079f8a
:0200cf0007a385
:0200d00007a780
:0200d10007aa7c
:0200d20007ae77
:0200d30007b173
:0200d40007b56e
:0200d50007b86a
:0200d60007bb66
:0200d70007bf61
:0200d80007c25d
:0200d90007c559
:0200da0007c855
:0200db0007ca52
:0200dc0007cd4e
:0200dd0007d04a
:0200de0007d346
:0200df0007d543
:0200e00007d83f
:0200e10007da3c
:0200e20007dc39
:0200e30007df35
:0200e40007e132
:0200e50007e32f
:0200e60007e52c
:0200e70007e729
:0200e80007e926
:0200e90007eb23
:0200ea0007ec21
:0200eb0007ee1e
:0200ec0007f01b
:0200ed0007f119
:0200ee0007f316
:0200ef0007f414
:0200f00007f512
:0200f10007f610
:0200f20007f70e
:0200f30007f80c
:0200f40007f90a
:0200f50007fa08
:0200f60007fb06
:0200f70007fc04
:0200f80007fd02
:0200f90007fd01
:0200fa0007feff
:0200fb0007fefe
:0200fc0007fefd
:0200fd0007fffb
:0200fe0007fffa
:0200ff0007fff9
:0201000007fff7
:0201010007fff6
:0201020007fff5
:0201030007fff4
:0201040007fef4
:0201050007fef3
:0201060007fef2
:0201070007fdf2
:0201080007fdf1
:0201090007fcf1
:02010a0007fbf1
:02010b0007faf1
:02010c0007f9f1
:02010d0007f8f1
:02010e0007f7f1
:02010f0007f6f1
:0201100007f5f1
:0201110007f4f1
:0201120007f3f1
:0201130007f1f2
:0201140007f0f2
:0201150007eef3
:0201160007ecf4
:0201170007ebf4
:0201180007e9f5
:0201190007e7f6
:02011a0007e5f7
:02011b0007e3f8
:02011c0007e1f9
:02011d0007dffa
:02011e0007dcfc
:02011f0007dafd
:0201200007d8fe
:0201210007d500
:0201220007d301
:0201230007d003
:0201240007cd05
:0201250007ca07
:0201260007c808
:0201270007c50a
:0201280007c20c
:0201290007bf0e
:02012a0007bb11
:02012b0007b813
:02012c0007b515
:02012d0007b118
:02012e0007ae1a
:02012f0007aa1d
:0201300007a71f
:0201310007a322
:02013200079f25
:02013300079c27
:0201340007982a
:0201350007942d
:02013600079030
:02013700078c33
:02013800078737
:0201390007833a
:02013a00077f3d
:02013b00077a41
:02013c00077644
:02013d00077148
:02013e00076d4b
:02013f0007684f
:02014000076353
:02014100075e57
:0201420007595b
:0201430007545f
:02014400074f63
:02014500074a67
:0201460007456b
:0201470007406f
:02014800073a74
:02014900073578
:02014a0007307c
:02014b00072a81
:02014c00072486
:02014d00071f8a
:02014e0007198f
:02014f00071394
:02015000070d99
:0201510007079e
:020152000701a3
:0201530006fba9
:0201540006f5ae
:0201550006efb3
:0201560006e9b8
:0201570006e2be
:0201580006dcc3
:0201590006d5c9
:02015a0006cfce
:02015b0006c8d4
:02015c0006c1da
:02015d0006bbdf
:02015e0006b4e5
:02015f0006adeb
:0201600006a6f1
:02016100069ff7
:020162000698fd
:02016300069103
:02016400068a09
:02016500068210
:02016600067b16
:0201670006741c
:02016800066c23
:02016900066529
:02016a00065d30
:02016b00065537
:02016c00064e3d
:02016d00064644
:02016e00063e4b
:02016f00063652
:02017000062e59
:02017100062660
:02017200061e67
:0201730006166e
:02017400060e75
:0201750006067c
:0201760005fd85
:0201770005f58c
:0201780005ed93
:0201790005e49b
:02017a0005dca2
:02017b0005d3aa
:02017c0005cbb1
:02017d0005c2b9
:02017e0005b9c1
:02017f0005b0c9
:0201800005a7d1
:02018100059fd8
:020182000596e0
:02018300058de8
:020184000583f1
:02018500057af9
:02018600057101
:02018700056809
:02018800055f11
:0201890005551a
:02018a00054c22
:02018b0005432a
:02018c00053933
:02018d0005303b
:02018e00052644
:02018f00051c4d
:02019000051355
:0201910005095e
:0201920004ff68
:0201930004f571
:0201940004eb7a
:0201950004e183
:0201960004d78c
:0201970004cd95
:0201980004c39e
:0201990004b9a7
:02019a0004afb0
:02019b0004a5b9
:02019c00049bc2
:02019d000490cc
:02019e000486d5
:02019f00047cde
:0201a0000471e8
:0201a1000467f1
:0201a200045cfb
:0201a300045204
:0201a40004470e
:0201a500043d17
:0201a600043221
:0201a70004272b
:0201a800041c35
:0201a90004123e
:0201aa00040748
:0201ab0003fc53
:0201ac0003f15d
:0201ad0003e667
:0201ae0003db71
:0201af0003d07b
:0201b00003c585
:0201b10003ba8f
:0201b20003af99
:0201b30003a4a3
:0201b4000398ae
:0201b500038db8
:0201b6000382c2
:0201b7000377cc
:0201b800036bd7
:0201b9000360e1
:0201ba000354ec
:0201bb000349f6
:0201bc00033e00
:0201bd0003320b
:0201be00032715
:0201bf00031b20
:0201c000030f2b
:0201c100030435
:0201c20002f841
:0201c30002ec4c
:0201c40002e156
:0201c50002d561
:0201c60002c96c
:0201c70002bd77
:0201c80002b281
:0201c90002a68c
:0201ca00029a97
:0201cb00028ea2
:0201cc000282ad
:0201cd000276b8
:0201ce00026ac3
:0201cf00025ece
:0201d0000252d9
:0201d1000246e4
:0201d200023aef
:0201d300022efa
:0201d400022205
:0201d500021610
:0201d600020a1b
:0201d70001fe27
:0201d80001f133
:0201d90001e53e
:0201da0001d949
:0201db0001cd54
:0201dc0001c15f
:0201dd0001b46b
:0201de0001a876
:0201df00019c81
:0201e000018f8d
:0201e100018398
:0201e2000177a3
:0201e300016aaf
:0201e400015eba
:0201e5000152c5
:0201e6000145d1
:0201e7000139dc
:0201e800012ce8
:0201e9000120f3
:0201ea000113ff
:0201eb0001070a
:0201ec0000fb16
:0201ed0000ee22
:0201ee0000e22d
:0201ef0000d539
:0201f00000c944
:0201f10000bc50
:0201f20000b05b
:0201f30000a367
:0201f400009772
:0201f500008a7e
:0201f600007e89
:0201f700007195
:0201f8000064a1
:0201f9000058ac
:0201fa00004bb8
:0201fb00003fc3
:0201fc000032cf
:0201fd000026da
:0201fe000019e6
:0201ff00000df1
:00000001FF
